{
	"contracts/BankAccount.sol": {
		"BankAccount": {
			"abi": [
				{
					"inputs": [],
					"stateMutability": "nonpayable",
					"type": "constructor"
				},
				{
					"anonymous": false,
					"inputs": [
						{
							"indexed": true,
							"internalType": "address",
							"name": "sender",
							"type": "address"
						},
						{
							"indexed": false,
							"internalType": "uint256",
							"name": "amount",
							"type": "uint256"
						},
						{
							"indexed": false,
							"internalType": "uint256",
							"name": "timestamp",
							"type": "uint256"
						}
					],
					"name": "Deposit",
					"type": "event"
				},
				{
					"inputs": [],
					"name": "owner",
					"outputs": [
						{
							"internalType": "address",
							"name": "",
							"type": "address"
						}
					],
					"stateMutability": "view",
					"type": "function"
				},
				{
					"inputs": [
						{
							"internalType": "uint256",
							"name": "amount",
							"type": "uint256"
						}
					],
					"name": "withdraw",
					"outputs": [],
					"stateMutability": "nonpayable",
					"type": "function"
				},
				{
					"stateMutability": "payable",
					"type": "receive"
				}
			],
			"devdoc": {
				"kind": "dev",
				"methods": {},
				"version": 1
			},
			"evm": {
				"assembly": "    /* \"contracts/BankAccount.sol\":61:1418  contract BankAccount {... */\n  mstore(0x40, 0x80)\n    /* \"contracts/BankAccount.sol\":995:1046  constructor() {... */\n  callvalue\n  dup1\n  iszero\n  tag_1\n  jumpi\n  revert(0x00, 0x00)\ntag_1:\n  pop\n    /* \"contracts/BankAccount.sol\":1028:1038  msg.sender */\n  caller\n    /* \"contracts/BankAccount.sol\":1020:1025  owner */\n  0x01\n  0x00\n    /* \"contracts/BankAccount.sol\":1020:1038  owner = msg.sender */\n  0x0100\n  exp\n  dup2\n  sload\n  dup2\n  0xffffffffffffffffffffffffffffffffffffffff\n  mul\n  not\n  and\n  swap1\n  dup4\n  0xffffffffffffffffffffffffffffffffffffffff\n  and\n  mul\n  or\n  swap1\n  sstore\n  pop\n    /* \"contracts/BankAccount.sol\":61:1418  contract BankAccount {... */\n  dataSize(sub_0)\n  dup1\n  dataOffset(sub_0)\n  0x00\n  codecopy\n  0x00\n  return\nstop\n\nsub_0: assembly {\n        /* \"contracts/BankAccount.sol\":61:1418  contract BankAccount {... */\n      mstore(0x40, 0x80)\n      jumpi(tag_1, lt(calldatasize, 0x04))\n      shr(0xe0, calldataload(0x00))\n      dup1\n      0x2e1a7d4d\n      eq\n      tag_3\n      jumpi\n      dup1\n      0x8da5cb5b\n      eq\n      tag_4\n      jumpi\n      jump(tag_2)\n    tag_1:\n      jumpi(tag_2, calldatasize)\n        /* \"contracts/BankAccount.sol\":613:622  msg.value */\n      callvalue\n        /* \"contracts/BankAccount.sol\":602:609  balance */\n      0x00\n      0x00\n        /* \"contracts/BankAccount.sol\":602:622  balance += msg.value */\n      dup3\n      dup3\n      sload\n      tag_7\n      swap2\n      swap1\n      tag_8\n      jump\t// in\n    tag_7:\n      swap3\n      pop\n      pop\n      dup2\n      swap1\n      sstore\n      pop\n        /* \"contracts/BankAccount.sol\":834:844  msg.sender */\n      caller\n        /* \"contracts/BankAccount.sol\":826:873  Deposit(msg.sender, msg.value, block.timestamp) */\n      0xffffffffffffffffffffffffffffffffffffffff\n      and\n      0x90890809c654f11d6e72a28fa60149770a0d11ec6c92319d6ceb2bb0a4ea1a15\n        /* \"contracts/BankAccount.sol\":846:855  msg.value */\n      callvalue\n        /* \"contracts/BankAccount.sol\":857:872  block.timestamp */\n      timestamp\n        /* \"contracts/BankAccount.sol\":826:873  Deposit(msg.sender, msg.value, block.timestamp) */\n      mload(0x40)\n      tag_9\n      swap3\n      swap2\n      swap1\n      tag_10\n      jump\t// in\n    tag_9:\n      mload(0x40)\n      dup1\n      swap2\n      sub\n      swap1\n      log2\n        /* \"contracts/BankAccount.sol\":61:1418  contract BankAccount {... */\n      stop\n    tag_2:\n      revert(0x00, 0x00)\n        /* \"contracts/BankAccount.sol\":1241:1413  function withdraw(uint256 amount) external {... */\n    tag_3:\n      callvalue\n      dup1\n      iszero\n      tag_11\n      jumpi\n      revert(0x00, 0x00)\n    tag_11:\n      pop\n      tag_12\n      0x04\n      dup1\n      calldatasize\n      sub\n      dup2\n      add\n      swap1\n      tag_13\n      swap2\n      swap1\n      tag_14\n      jump\t// in\n    tag_13:\n      tag_15\n      jump\t// in\n    tag_12:\n      stop\n        /* \"contracts/BankAccount.sol\":408:428  address public owner */\n    tag_4:\n      callvalue\n      dup1\n      iszero\n      tag_16\n      jumpi\n      revert(0x00, 0x00)\n    tag_16:\n      pop\n      tag_17\n      tag_18\n      jump\t// in\n    tag_17:\n      mload(0x40)\n      tag_19\n      swap2\n      swap1\n      tag_20\n      jump\t// in\n    tag_19:\n      mload(0x40)\n      dup1\n      swap2\n      sub\n      swap1\n      return\n        /* \"contracts/BankAccount.sol\":1241:1413  function withdraw(uint256 amount) external {... */\n    tag_15:\n        /* \"contracts/BankAccount.sol\":1296:1305  bool sent */\n      0x00\n        /* \"contracts/BankAccount.sol\":1307:1324  bytes memory data */\n      0x00\n        /* \"contracts/BankAccount.sol\":1328:1333  owner */\n      0x01\n      0x00\n      swap1\n      sload\n      swap1\n      0x0100\n      exp\n      swap1\n      div\n      0xffffffffffffffffffffffffffffffffffffffff\n      and\n        /* \"contracts/BankAccount.sol\":1328:1338  owner.call */\n      0xffffffffffffffffffffffffffffffffffffffff\n      and\n        /* \"contracts/BankAccount.sol\":1346:1352  amount */\n      dup4\n        /* \"contracts/BankAccount.sol\":1328:1357  owner.call{value: amount}(\"\") */\n      mload(0x40)\n      tag_22\n      swap1\n      tag_23\n      jump\t// in\n    tag_22:\n      0x00\n      mload(0x40)\n      dup1\n      dup4\n      sub\n      dup2\n      dup6\n      dup8\n      gas\n      call\n      swap3\n      pop\n      pop\n      pop\n      returndatasize\n      dup1\n      0x00\n      dup2\n      eq\n      tag_26\n      jumpi\n      mload(0x40)\n      swap2\n      pop\n      and(add(returndatasize, 0x3f), not(0x1f))\n      dup3\n      add\n      0x40\n      mstore\n      returndatasize\n      dup3\n      mstore\n      returndatasize\n      0x00\n      0x20\n      dup5\n      add\n      returndatacopy\n      jump(tag_25)\n    tag_26:\n      0x60\n      swap2\n      pop\n    tag_25:\n      pop\n        /* \"contracts/BankAccount.sol\":1295:1357  (bool sent, bytes memory data) = owner.call{value: amount}(\"\") */\n      swap2\n      pop\n      swap2\n      pop\n        /* \"contracts/BankAccount.sol\":1376:1380  sent */\n      dup2\n        /* \"contracts/BankAccount.sol\":1368:1405  require(sent, \"Failed to send Ether\") */\n      tag_27\n      jumpi\n      mload(0x40)\n      0x08c379a000000000000000000000000000000000000000000000000000000000\n      dup2\n      mstore\n      0x04\n      add\n      tag_28\n      swap1\n      tag_29\n      jump\t// in\n    tag_28:\n      mload(0x40)\n      dup1\n      swap2\n      sub\n      swap1\n      revert\n    tag_27:\n        /* \"contracts/BankAccount.sol\":1284:1413  {... */\n      pop\n      pop\n        /* \"contracts/BankAccount.sol\":1241:1413  function withdraw(uint256 amount) external {... */\n      pop\n      jump\t// out\n        /* \"contracts/BankAccount.sol\":408:428  address public owner */\n    tag_18:\n      0x01\n      0x00\n      swap1\n      sload\n      swap1\n      0x0100\n      exp\n      swap1\n      div\n      0xffffffffffffffffffffffffffffffffffffffff\n      and\n      dup2\n      jump\t// out\n        /* \"#utility.yul\":7:84   */\n    tag_30:\n        /* \"#utility.yul\":44:51   */\n      0x00\n        /* \"#utility.yul\":73:78   */\n      dup2\n        /* \"#utility.yul\":62:78   */\n      swap1\n      pop\n        /* \"#utility.yul\":7:84   */\n      swap2\n      swap1\n      pop\n      jump\t// out\n        /* \"#utility.yul\":90:270   */\n    tag_31:\n        /* \"#utility.yul\":138:215   */\n      0x4e487b7100000000000000000000000000000000000000000000000000000000\n        /* \"#utility.yul\":135:136   */\n      0x00\n        /* \"#utility.yul\":128:216   */\n      mstore\n        /* \"#utility.yul\":235:239   */\n      0x11\n        /* \"#utility.yul\":232:233   */\n      0x04\n        /* \"#utility.yul\":225:240   */\n      mstore\n        /* \"#utility.yul\":259:263   */\n      0x24\n        /* \"#utility.yul\":256:257   */\n      0x00\n        /* \"#utility.yul\":249:264   */\n      revert\n        /* \"#utility.yul\":276:467   */\n    tag_8:\n        /* \"#utility.yul\":316:319   */\n      0x00\n        /* \"#utility.yul\":335:355   */\n      tag_51\n        /* \"#utility.yul\":353:354   */\n      dup3\n        /* \"#utility.yul\":335:355   */\n      tag_30\n      jump\t// in\n    tag_51:\n        /* \"#utility.yul\":330:355   */\n      swap2\n      pop\n        /* \"#utility.yul\":369:389   */\n      tag_52\n        /* \"#utility.yul\":387:388   */\n      dup4\n        /* \"#utility.yul\":369:389   */\n      tag_30\n      jump\t// in\n    tag_52:\n        /* \"#utility.yul\":364:389   */\n      swap3\n      pop\n        /* \"#utility.yul\":412:413   */\n      dup3\n        /* \"#utility.yul\":409:410   */\n      dup3\n        /* \"#utility.yul\":405:414   */\n      add\n        /* \"#utility.yul\":398:414   */\n      swap1\n      pop\n        /* \"#utility.yul\":433:436   */\n      dup1\n        /* \"#utility.yul\":430:431   */\n      dup3\n        /* \"#utility.yul\":427:437   */\n      gt\n        /* \"#utility.yul\":424:460   */\n      iszero\n      tag_53\n      jumpi\n        /* \"#utility.yul\":440:458   */\n      tag_54\n      tag_31\n      jump\t// in\n    tag_54:\n        /* \"#utility.yul\":424:460   */\n    tag_53:\n        /* \"#utility.yul\":276:467   */\n      swap3\n      swap2\n      pop\n      pop\n      jump\t// out\n        /* \"#utility.yul\":473:591   */\n    tag_32:\n        /* \"#utility.yul\":560:584   */\n      tag_56\n        /* \"#utility.yul\":578:583   */\n      dup2\n        /* \"#utility.yul\":560:584   */\n      tag_30\n      jump\t// in\n    tag_56:\n        /* \"#utility.yul\":555:558   */\n      dup3\n        /* \"#utility.yul\":548:585   */\n      mstore\n        /* \"#utility.yul\":473:591   */\n      pop\n      pop\n      jump\t// out\n        /* \"#utility.yul\":597:929   */\n    tag_10:\n        /* \"#utility.yul\":718:722   */\n      0x00\n        /* \"#utility.yul\":756:758   */\n      0x40\n        /* \"#utility.yul\":745:754   */\n      dup3\n        /* \"#utility.yul\":741:759   */\n      add\n        /* \"#utility.yul\":733:759   */\n      swap1\n      pop\n        /* \"#utility.yul\":769:840   */\n      tag_58\n        /* \"#utility.yul\":837:838   */\n      0x00\n        /* \"#utility.yul\":826:835   */\n      dup4\n        /* \"#utility.yul\":822:839   */\n      add\n        /* \"#utility.yul\":813:819   */\n      dup6\n        /* \"#utility.yul\":769:840   */\n      tag_32\n      jump\t// in\n    tag_58:\n        /* \"#utility.yul\":850:922   */\n      tag_59\n        /* \"#utility.yul\":918:920   */\n      0x20\n        /* \"#utility.yul\":907:916   */\n      dup4\n        /* \"#utility.yul\":903:921   */\n      add\n        /* \"#utility.yul\":894:900   */\n      dup5\n        /* \"#utility.yul\":850:922   */\n      tag_32\n      jump\t// in\n    tag_59:\n        /* \"#utility.yul\":597:929   */\n      swap4\n      swap3\n      pop\n      pop\n      pop\n      jump\t// out\n        /* \"#utility.yul\":1016:1133   */\n    tag_34:\n        /* \"#utility.yul\":1125:1126   */\n      0x00\n        /* \"#utility.yul\":1122:1123   */\n      0x00\n        /* \"#utility.yul\":1115:1127   */\n      revert\n        /* \"#utility.yul\":1262:1384   */\n    tag_36:\n        /* \"#utility.yul\":1335:1359   */\n      tag_64\n        /* \"#utility.yul\":1353:1358   */\n      dup2\n        /* \"#utility.yul\":1335:1359   */\n      tag_30\n      jump\t// in\n    tag_64:\n        /* \"#utility.yul\":1328:1333   */\n      dup2\n        /* \"#utility.yul\":1325:1360   */\n      eq\n        /* \"#utility.yul\":1315:1378   */\n      tag_65\n      jumpi\n        /* \"#utility.yul\":1374:1375   */\n      0x00\n        /* \"#utility.yul\":1371:1372   */\n      0x00\n        /* \"#utility.yul\":1364:1376   */\n      revert\n        /* \"#utility.yul\":1315:1378   */\n    tag_65:\n        /* \"#utility.yul\":1262:1384   */\n      pop\n      jump\t// out\n        /* \"#utility.yul\":1390:1529   */\n    tag_37:\n        /* \"#utility.yul\":1436:1441   */\n      0x00\n        /* \"#utility.yul\":1474:1480   */\n      dup2\n        /* \"#utility.yul\":1461:1481   */\n      calldataload\n        /* \"#utility.yul\":1452:1481   */\n      swap1\n      pop\n        /* \"#utility.yul\":1490:1523   */\n      tag_67\n        /* \"#utility.yul\":1517:1522   */\n      dup2\n        /* \"#utility.yul\":1490:1523   */\n      tag_36\n      jump\t// in\n    tag_67:\n        /* \"#utility.yul\":1390:1529   */\n      swap3\n      swap2\n      pop\n      pop\n      jump\t// out\n        /* \"#utility.yul\":1535:1864   */\n    tag_14:\n        /* \"#utility.yul\":1594:1600   */\n      0x00\n        /* \"#utility.yul\":1643:1645   */\n      0x20\n        /* \"#utility.yul\":1631:1640   */\n      dup3\n        /* \"#utility.yul\":1622:1629   */\n      dup5\n        /* \"#utility.yul\":1618:1641   */\n      sub\n        /* \"#utility.yul\":1614:1646   */\n      slt\n        /* \"#utility.yul\":1611:1730   */\n      iszero\n      tag_69\n      jumpi\n        /* \"#utility.yul\":1649:1728   */\n      tag_70\n      tag_34\n      jump\t// in\n    tag_70:\n        /* \"#utility.yul\":1611:1730   */\n    tag_69:\n        /* \"#utility.yul\":1769:1770   */\n      0x00\n        /* \"#utility.yul\":1794:1847   */\n      tag_71\n        /* \"#utility.yul\":1839:1846   */\n      dup5\n        /* \"#utility.yul\":1830:1836   */\n      dup3\n        /* \"#utility.yul\":1819:1828   */\n      dup6\n        /* \"#utility.yul\":1815:1837   */\n      add\n        /* \"#utility.yul\":1794:1847   */\n      tag_37\n      jump\t// in\n    tag_71:\n        /* \"#utility.yul\":1784:1847   */\n      swap2\n      pop\n        /* \"#utility.yul\":1740:1857   */\n      pop\n        /* \"#utility.yul\":1535:1864   */\n      swap3\n      swap2\n      pop\n      pop\n      jump\t// out\n        /* \"#utility.yul\":1870:1996   */\n    tag_38:\n        /* \"#utility.yul\":1907:1914   */\n      0x00\n        /* \"#utility.yul\":1947:1989   */\n      0xffffffffffffffffffffffffffffffffffffffff\n        /* \"#utility.yul\":1940:1945   */\n      dup3\n        /* \"#utility.yul\":1936:1990   */\n      and\n        /* \"#utility.yul\":1925:1990   */\n      swap1\n      pop\n        /* \"#utility.yul\":1870:1996   */\n      swap2\n      swap1\n      pop\n      jump\t// out\n        /* \"#utility.yul\":2002:2098   */\n    tag_39:\n        /* \"#utility.yul\":2039:2046   */\n      0x00\n        /* \"#utility.yul\":2068:2092   */\n      tag_74\n        /* \"#utility.yul\":2086:2091   */\n      dup3\n        /* \"#utility.yul\":2068:2092   */\n      tag_38\n      jump\t// in\n    tag_74:\n        /* \"#utility.yul\":2057:2092   */\n      swap1\n      pop\n        /* \"#utility.yul\":2002:2098   */\n      swap2\n      swap1\n      pop\n      jump\t// out\n        /* \"#utility.yul\":2104:2222   */\n    tag_40:\n        /* \"#utility.yul\":2191:2215   */\n      tag_76\n        /* \"#utility.yul\":2209:2214   */\n      dup2\n        /* \"#utility.yul\":2191:2215   */\n      tag_39\n      jump\t// in\n    tag_76:\n        /* \"#utility.yul\":2186:2189   */\n      dup3\n        /* \"#utility.yul\":2179:2216   */\n      mstore\n        /* \"#utility.yul\":2104:2222   */\n      pop\n      pop\n      jump\t// out\n        /* \"#utility.yul\":2228:2450   */\n    tag_20:\n        /* \"#utility.yul\":2321:2325   */\n      0x00\n        /* \"#utility.yul\":2359:2361   */\n      0x20\n        /* \"#utility.yul\":2348:2357   */\n      dup3\n        /* \"#utility.yul\":2344:2362   */\n      add\n        /* \"#utility.yul\":2336:2362   */\n      swap1\n      pop\n        /* \"#utility.yul\":2372:2443   */\n      tag_78\n        /* \"#utility.yul\":2440:2441   */\n      0x00\n        /* \"#utility.yul\":2429:2438   */\n      dup4\n        /* \"#utility.yul\":2425:2442   */\n      add\n        /* \"#utility.yul\":2416:2422   */\n      dup5\n        /* \"#utility.yul\":2372:2443   */\n      tag_40\n      jump\t// in\n    tag_78:\n        /* \"#utility.yul\":2228:2450   */\n      swap3\n      swap2\n      pop\n      pop\n      jump\t// out\n        /* \"#utility.yul\":2456:2603   */\n    tag_41:\n        /* \"#utility.yul\":2557:2568   */\n      0x00\n        /* \"#utility.yul\":2594:2597   */\n      dup2\n        /* \"#utility.yul\":2579:2597   */\n      swap1\n      pop\n        /* \"#utility.yul\":2456:2603   */\n      swap3\n      swap2\n      pop\n      pop\n      jump\t// out\n        /* \"#utility.yul\":2609:2723   */\n    tag_42:\n      pop\n      jump\t// out\n        /* \"#utility.yul\":2729:3127   */\n    tag_43:\n        /* \"#utility.yul\":2888:2891   */\n      0x00\n        /* \"#utility.yul\":2909:2992   */\n      tag_82\n        /* \"#utility.yul\":2990:2991   */\n      0x00\n        /* \"#utility.yul\":2985:2988   */\n      dup4\n        /* \"#utility.yul\":2909:2992   */\n      tag_41\n      jump\t// in\n    tag_82:\n        /* \"#utility.yul\":2902:2992   */\n      swap2\n      pop\n        /* \"#utility.yul\":3001:3094   */\n      tag_83\n        /* \"#utility.yul\":3090:3093   */\n      dup3\n        /* \"#utility.yul\":3001:3094   */\n      tag_42\n      jump\t// in\n    tag_83:\n        /* \"#utility.yul\":3119:3120   */\n      0x00\n        /* \"#utility.yul\":3114:3117   */\n      dup3\n        /* \"#utility.yul\":3110:3121   */\n      add\n        /* \"#utility.yul\":3103:3121   */\n      swap1\n      pop\n        /* \"#utility.yul\":2729:3127   */\n      swap2\n      swap1\n      pop\n      jump\t// out\n        /* \"#utility.yul\":3133:3512   */\n    tag_23:\n        /* \"#utility.yul\":3317:3320   */\n      0x00\n        /* \"#utility.yul\":3339:3486   */\n      tag_85\n        /* \"#utility.yul\":3482:3485   */\n      dup3\n        /* \"#utility.yul\":3339:3486   */\n      tag_43\n      jump\t// in\n    tag_85:\n        /* \"#utility.yul\":3332:3486   */\n      swap2\n      pop\n        /* \"#utility.yul\":3503:3506   */\n      dup2\n        /* \"#utility.yul\":3496:3506   */\n      swap1\n      pop\n        /* \"#utility.yul\":3133:3512   */\n      swap2\n      swap1\n      pop\n      jump\t// out\n        /* \"#utility.yul\":3518:3687   */\n    tag_44:\n        /* \"#utility.yul\":3602:3613   */\n      0x00\n        /* \"#utility.yul\":3636:3642   */\n      dup3\n        /* \"#utility.yul\":3631:3634   */\n      dup3\n        /* \"#utility.yul\":3624:3643   */\n      mstore\n        /* \"#utility.yul\":3676:3680   */\n      0x20\n        /* \"#utility.yul\":3671:3674   */\n      dup3\n        /* \"#utility.yul\":3667:3681   */\n      add\n        /* \"#utility.yul\":3652:3681   */\n      swap1\n      pop\n        /* \"#utility.yul\":3518:3687   */\n      swap3\n      swap2\n      pop\n      pop\n      jump\t// out\n        /* \"#utility.yul\":3693:3863   */\n    tag_45:\n        /* \"#utility.yul\":3833:3855   */\n      0x4661696c656420746f2073656e64204574686572000000000000000000000000\n        /* \"#utility.yul\":3829:3830   */\n      0x00\n        /* \"#utility.yul\":3821:3827   */\n      dup3\n        /* \"#utility.yul\":3817:3831   */\n      add\n        /* \"#utility.yul\":3810:3856   */\n      mstore\n        /* \"#utility.yul\":3693:3863   */\n      pop\n      jump\t// out\n        /* \"#utility.yul\":3869:4235   */\n    tag_46:\n        /* \"#utility.yul\":4011:4014   */\n      0x00\n        /* \"#utility.yul\":4032:4099   */\n      tag_89\n        /* \"#utility.yul\":4096:4098   */\n      0x14\n        /* \"#utility.yul\":4091:4094   */\n      dup4\n        /* \"#utility.yul\":4032:4099   */\n      tag_44\n      jump\t// in\n    tag_89:\n        /* \"#utility.yul\":4025:4099   */\n      swap2\n      pop\n        /* \"#utility.yul\":4108:4201   */\n      tag_90\n        /* \"#utility.yul\":4197:4200   */\n      dup3\n        /* \"#utility.yul\":4108:4201   */\n      tag_45\n      jump\t// in\n    tag_90:\n        /* \"#utility.yul\":4226:4228   */\n      0x20\n        /* \"#utility.yul\":4221:4224   */\n      dup3\n        /* \"#utility.yul\":4217:4229   */\n      add\n        /* \"#utility.yul\":4210:4229   */\n      swap1\n      pop\n        /* \"#utility.yul\":3869:4235   */\n      swap2\n      swap1\n      pop\n      jump\t// out\n        /* \"#utility.yul\":4241:4660   */\n    tag_29:\n        /* \"#utility.yul\":4407:4411   */\n      0x00\n        /* \"#utility.yul\":4445:4447   */\n      0x20\n        /* \"#utility.yul\":4434:4443   */\n      dup3\n        /* \"#utility.yul\":4430:4448   */\n      add\n        /* \"#utility.yul\":4422:4448   */\n      swap1\n      pop\n        /* \"#utility.yul\":4494:4503   */\n      dup2\n        /* \"#utility.yul\":4488:4492   */\n      dup2\n        /* \"#utility.yul\":4484:4504   */\n      sub\n        /* \"#utility.yul\":4480:4481   */\n      0x00\n        /* \"#utility.yul\":4469:4478   */\n      dup4\n        /* \"#utility.yul\":4465:4482   */\n      add\n        /* \"#utility.yul\":4458:4505   */\n      mstore\n        /* \"#utility.yul\":4522:4653   */\n      tag_92\n        /* \"#utility.yul\":4648:4652   */\n      dup2\n        /* \"#utility.yul\":4522:4653   */\n      tag_46\n      jump\t// in\n    tag_92:\n        /* \"#utility.yul\":4514:4653   */\n      swap1\n      pop\n        /* \"#utility.yul\":4241:4660   */\n      swap2\n      swap1\n      pop\n      jump\t// out\n\n    auxdata: 0xa2646970667358221220ae1888f54960cf8ab9eb66f850efc69035be07ccad114e73739572f293bbc0f764736f6c634300081e0033\n}\n",
				"bytecode": {
					"linkReferences": {},
					"object": "6080604052348015600e575f5ffd5b503360015f6101000a81548173ffffffffffffffffffffffffffffffffffffffff021916908373ffffffffffffffffffffffffffffffffffffffff1602179055506104248061005c5f395ff3fe60806040526004361061002c575f3560e01c80632e1a7d4d1461009e5780638da5cb5b146100c65761009a565b3661009a57345f5f828254610041919061021b565b925050819055503373ffffffffffffffffffffffffffffffffffffffff167f90890809c654f11d6e72a28fa60149770a0d11ec6c92319d6ceb2bb0a4ea1a15344260405161009092919061025d565b60405180910390a2005b5f5ffd5b3480156100a9575f5ffd5b506100c460048036038101906100bf91906102b2565b6100f0565b005b3480156100d1575f5ffd5b506100da6101c0565b6040516100e7919061031c565b60405180910390f35b5f5f60015f9054906101000a900473ffffffffffffffffffffffffffffffffffffffff1673ffffffffffffffffffffffffffffffffffffffff168360405161013790610362565b5f6040518083038185875af1925050503d805f8114610171576040519150601f19603f3d011682016040523d82523d5f602084013e610176565b606091505b5091509150816101bb576040517f08c379a00000000000000000000000000000000000000000000000000000000081526004016101b2906103d0565b60405180910390fd5b505050565b60015f9054906101000a900473ffffffffffffffffffffffffffffffffffffffff1681565b5f819050919050565b7f4e487b71000000000000000000000000000000000000000000000000000000005f52601160045260245ffd5b5f610225826101e5565b9150610230836101e5565b9250828201905080821115610248576102476101ee565b5b92915050565b610257816101e5565b82525050565b5f6040820190506102705f83018561024e565b61027d602083018461024e565b9392505050565b5f5ffd5b610291816101e5565b811461029b575f5ffd5b50565b5f813590506102ac81610288565b92915050565b5f602082840312156102c7576102c6610284565b5b5f6102d48482850161029e565b91505092915050565b5f73ffffffffffffffffffffffffffffffffffffffff82169050919050565b5f610306826102dd565b9050919050565b610316816102fc565b82525050565b5f60208201905061032f5f83018461030d565b92915050565b5f81905092915050565b50565b5f61034d5f83610335565b91506103588261033f565b5f82019050919050565b5f61036c82610342565b9150819050919050565b5f82825260208201905092915050565b7f4661696c656420746f2073656e642045746865720000000000000000000000005f82015250565b5f6103ba601483610376565b91506103c582610386565b602082019050919050565b5f6020820190508181035f8301526103e7816103ae565b905091905056fea2646970667358221220ae1888f54960cf8ab9eb66f850efc69035be07ccad114e73739572f293bbc0f764736f6c634300081e0033",
					"opcodes": "PUSH1 0x80 PUSH1 0x40 MSTORE CALLVALUE DUP1 ISZERO PUSH1 0xE JUMPI PUSH0 PUSH0 REVERT JUMPDEST POP CALLER PUSH1 0x1 PUSH0 PUSH2 0x100 EXP DUP2 SLOAD DUP2 PUSH20 0xFFFFFFFFFFFFFFFFFFFFFFFFFFFFFFFFFFFFFFFF MUL NOT AND SWAP1 DUP4 PUSH20 0xFFFFFFFFFFFFFFFFFFFFFFFFFFFFFFFFFFFFFFFF AND MUL OR SWAP1 SSTORE POP PUSH2 0x424 DUP1 PUSH2 0x5C PUSH0 CODECOPY PUSH0 RETURN INVALID PUSH1 0x80 PUSH1 0x40 MSTORE PUSH1 0x4 CALLDATASIZE LT PUSH2 0x2C JUMPI PUSH0 CALLDATALOAD PUSH1 0xE0 SHR DUP1 PUSH4 0x2E1A7D4D EQ PUSH2 0x9E JUMPI DUP1 PUSH4 0x8DA5CB5B EQ PUSH2 0xC6 JUMPI PUSH2 0x9A JUMP JUMPDEST CALLDATASIZE PUSH2 0x9A JUMPI CALLVALUE PUSH0 PUSH0 DUP3 DUP3 SLOAD PUSH2 0x41 SWAP2 SWAP1 PUSH2 0x21B JUMP JUMPDEST SWAP3 POP POP DUP2 SWAP1 SSTORE POP CALLER PUSH20 0xFFFFFFFFFFFFFFFFFFFFFFFFFFFFFFFFFFFFFFFF AND PUSH32 0x90890809C654F11D6E72A28FA60149770A0D11EC6C92319D6CEB2BB0A4EA1A15 CALLVALUE TIMESTAMP PUSH1 0x40 MLOAD PUSH2 0x90 SWAP3 SWAP2 SWAP1 PUSH2 0x25D JUMP JUMPDEST PUSH1 0x40 MLOAD DUP1 SWAP2 SUB SWAP1 LOG2 STOP JUMPDEST PUSH0 PUSH0 REVERT JUMPDEST CALLVALUE DUP1 ISZERO PUSH2 0xA9 JUMPI PUSH0 PUSH0 REVERT JUMPDEST POP PUSH2 0xC4 PUSH1 0x4 DUP1 CALLDATASIZE SUB DUP2 ADD SWAP1 PUSH2 0xBF SWAP2 SWAP1 PUSH2 0x2B2 JUMP JUMPDEST PUSH2 0xF0 JUMP JUMPDEST STOP JUMPDEST CALLVALUE DUP1 ISZERO PUSH2 0xD1 JUMPI PUSH0 PUSH0 REVERT JUMPDEST POP PUSH2 0xDA PUSH2 0x1C0 JUMP JUMPDEST PUSH1 0x40 MLOAD PUSH2 0xE7 SWAP2 SWAP1 PUSH2 0x31C JUMP JUMPDEST PUSH1 0x40 MLOAD DUP1 SWAP2 SUB SWAP1 RETURN JUMPDEST PUSH0 PUSH0 PUSH1 0x1 PUSH0 SWAP1 SLOAD SWAP1 PUSH2 0x100 EXP SWAP1 DIV PUSH20 0xFFFFFFFFFFFFFFFFFFFFFFFFFFFFFFFFFFFFFFFF AND PUSH20 0xFFFFFFFFFFFFFFFFFFFFFFFFFFFFFFFFFFFFFFFF AND DUP4 PUSH1 0x40 MLOAD PUSH2 0x137 SWAP1 PUSH2 0x362 JUMP JUMPDEST PUSH0 PUSH1 0x40 MLOAD DUP1 DUP4 SUB DUP2 DUP6 DUP8 GAS CALL SWAP3 POP POP POP RETURNDATASIZE DUP1 PUSH0 DUP2 EQ PUSH2 0x171 JUMPI PUSH1 0x40 MLOAD SWAP2 POP PUSH1 0x1F NOT PUSH1 0x3F RETURNDATASIZE ADD AND DUP3 ADD PUSH1 0x40 MSTORE RETURNDATASIZE DUP3 MSTORE RETURNDATASIZE PUSH0 PUSH1 0x20 DUP5 ADD RETURNDATACOPY PUSH2 0x176 JUMP JUMPDEST PUSH1 0x60 SWAP2 POP JUMPDEST POP SWAP2 POP SWAP2 POP DUP2 PUSH2 0x1BB JUMPI PUSH1 0x40 MLOAD PUSH32 0x8C379A000000000000000000000000000000000000000000000000000000000 DUP2 MSTORE PUSH1 0x4 ADD PUSH2 0x1B2 SWAP1 PUSH2 0x3D0 JUMP JUMPDEST PUSH1 0x40 MLOAD DUP1 SWAP2 SUB SWAP1 REVERT JUMPDEST POP POP POP JUMP JUMPDEST PUSH1 0x1 PUSH0 SWAP1 SLOAD SWAP1 PUSH2 0x100 EXP SWAP1 DIV PUSH20 0xFFFFFFFFFFFFFFFFFFFFFFFFFFFFFFFFFFFFFFFF AND DUP2 JUMP JUMPDEST PUSH0 DUP2 SWAP1 POP SWAP2 SWAP1 POP JUMP JUMPDEST PUSH32 0x4E487B7100000000000000000000000000000000000000000000000000000000 PUSH0 MSTORE PUSH1 0x11 PUSH1 0x4 MSTORE PUSH1 0x24 PUSH0 REVERT JUMPDEST PUSH0 PUSH2 0x225 DUP3 PUSH2 0x1E5 JUMP JUMPDEST SWAP2 POP PUSH2 0x230 DUP4 PUSH2 0x1E5 JUMP JUMPDEST SWAP3 POP DUP3 DUP3 ADD SWAP1 POP DUP1 DUP3 GT ISZERO PUSH2 0x248 JUMPI PUSH2 0x247 PUSH2 0x1EE JUMP JUMPDEST JUMPDEST SWAP3 SWAP2 POP POP JUMP JUMPDEST PUSH2 0x257 DUP2 PUSH2 0x1E5 JUMP JUMPDEST DUP3 MSTORE POP POP JUMP JUMPDEST PUSH0 PUSH1 0x40 DUP3 ADD SWAP1 POP PUSH2 0x270 PUSH0 DUP4 ADD DUP6 PUSH2 0x24E JUMP JUMPDEST PUSH2 0x27D PUSH1 0x20 DUP4 ADD DUP5 PUSH2 0x24E JUMP JUMPDEST SWAP4 SWAP3 POP POP POP JUMP JUMPDEST PUSH0 PUSH0 REVERT JUMPDEST PUSH2 0x291 DUP2 PUSH2 0x1E5 JUMP JUMPDEST DUP2 EQ PUSH2 0x29B JUMPI PUSH0 PUSH0 REVERT JUMPDEST POP JUMP JUMPDEST PUSH0 DUP2 CALLDATALOAD SWAP1 POP PUSH2 0x2AC DUP2 PUSH2 0x288 JUMP JUMPDEST SWAP3 SWAP2 POP POP JUMP JUMPDEST PUSH0 PUSH1 0x20 DUP3 DUP5 SUB SLT ISZERO PUSH2 0x2C7 JUMPI PUSH2 0x2C6 PUSH2 0x284 JUMP JUMPDEST JUMPDEST PUSH0 PUSH2 0x2D4 DUP5 DUP3 DUP6 ADD PUSH2 0x29E JUMP JUMPDEST SWAP2 POP POP SWAP3 SWAP2 POP POP JUMP JUMPDEST PUSH0 PUSH20 0xFFFFFFFFFFFFFFFFFFFFFFFFFFFFFFFFFFFFFFFF DUP3 AND SWAP1 POP SWAP2 SWAP1 POP JUMP JUMPDEST PUSH0 PUSH2 0x306 DUP3 PUSH2 0x2DD JUMP JUMPDEST SWAP1 POP SWAP2 SWAP1 POP JUMP JUMPDEST PUSH2 0x316 DUP2 PUSH2 0x2FC JUMP JUMPDEST DUP3 MSTORE POP POP JUMP JUMPDEST PUSH0 PUSH1 0x20 DUP3 ADD SWAP1 POP PUSH2 0x32F PUSH0 DUP4 ADD DUP5 PUSH2 0x30D JUMP JUMPDEST SWAP3 SWAP2 POP POP JUMP JUMPDEST PUSH0 DUP2 SWAP1 POP SWAP3 SWAP2 POP POP JUMP JUMPDEST POP JUMP JUMPDEST PUSH0 PUSH2 0x34D PUSH0 DUP4 PUSH2 0x335 JUMP JUMPDEST SWAP2 POP PUSH2 0x358 DUP3 PUSH2 0x33F JUMP JUMPDEST PUSH0 DUP3 ADD SWAP1 POP SWAP2 SWAP1 POP JUMP JUMPDEST PUSH0 PUSH2 0x36C DUP3 PUSH2 0x342 JUMP JUMPDEST SWAP2 POP DUP2 SWAP1 POP SWAP2 SWAP1 POP JUMP JUMPDEST PUSH0 DUP3 DUP3 MSTORE PUSH1 0x20 DUP3 ADD SWAP1 POP SWAP3 SWAP2 POP POP JUMP JUMPDEST PUSH32 0x4661696C656420746F2073656E64204574686572000000000000000000000000 PUSH0 DUP3 ADD MSTORE POP JUMP JUMPDEST PUSH0 PUSH2 0x3BA PUSH1 0x14 DUP4 PUSH2 0x376 JUMP JUMPDEST SWAP2 POP PUSH2 0x3C5 DUP3 PUSH2 0x386 JUMP JUMPDEST PUSH1 0x20 DUP3 ADD SWAP1 POP SWAP2 SWAP1 POP JUMP JUMPDEST PUSH0 PUSH1 0x20 DUP3 ADD SWAP1 POP DUP2 DUP2 SUB PUSH0 DUP4 ADD MSTORE PUSH2 0x3E7 DUP2 PUSH2 0x3AE JUMP JUMPDEST SWAP1 POP SWAP2 SWAP1 POP JUMP INVALID LOG2 PUSH5 0x6970667358 0x22 SLT KECCAK256 0xAE XOR DUP9 CREATE2 BLOBHASH PUSH1 0xCF DUP11 0xB9 0xEB PUSH7 0xF850EFC69035BE SMOD 0xCC 0xAD GT 0x4E PUSH20 0x739572F293BBC0F764736F6C634300081E003300 "
				},
				"gasEstimates": {
					"creation": {
						"codeDepositCost": "212000",
						"executionCost": "24520",
						"totalCost": "236520"
					},
					"external": {
						"owner()": "2508",
						"withdraw(uint256)": "infinite"
					}
				},
				"methodIdentifiers": {
					"owner()": "8da5cb5b",
					"withdraw(uint256)": "2e1a7d4d"
				}
			},
			"storageLayout": {
				"storage": [
					{
						"astId": 11,
						"contract": "contracts/BankAccount.sol:BankAccount",
						"label": "balance",
						"offset": 0,
						"slot": "0",
						"type": "t_uint256"
					},
					{
						"astId": 13,
						"contract": "contracts/BankAccount.sol:BankAccount",
						"label": "owner",
						"offset": 0,
						"slot": "1",
						"type": "t_address"
					}
				],
				"types": {
					"t_address": {
						"encoding": "inplace",
						"label": "address",
						"numberOfBytes": "20"
					},
					"t_uint256": {
						"encoding": "inplace",
						"label": "uint256",
						"numberOfBytes": "32"
					}
				}
			},
			"userdoc": {
				"kind": "user",
				"methods": {},
				"version": 1
			}
		}
	}
}